:040000000C94BA00A2
:100004000C94D9020C9400000C9400000C94000091
:100014000C9400000C9400000C9400000C9400005C
:100024000C9400000C9400000C9400000C9400004C
:100034000C9400000C9400000C9400000C9400003C
:100044000C9400000C9400000C9400000C9400002C
:100054003132330043686F6F7365204974656D3ABC
:100064003A007072696365203A00456E74657220C7
:10007400436F696E73203A3A005069636B20757060
:1000840020796F7572204974656D004E6577205034
:10009400726963653A3A200057726F6E672053792C
:1000A4006D626F6C2E2E005072696365205570640A
:1000B400617465642E2E2E00456E74657220497439
:1000C400656D3A3A200057656C636F6D6520416435
:1000D4006D696E2E2E2E0041646D696E2050617321
:1000E40073776F72643A000080C001002D4E414E58
:1000F40000494E4600000300590254000E006001FE
:10010400580008006E0166000F0076016E001200B0
:1001140085017D000D0097018F000F00A4019C0054
:100124000D00B3018F001100C001AB001100D1011B
:10013400AB000F00E2019C000D00F1018F000E00E6
:10014400FE01BC000E000C02BC000E001A02BC0032
:1001540011002802CA0010003902DB001000490215
:10016400DB0002005D02EC0001006102EE00000011
:10017400F894EE27ECBBF1E0FBBFEBBFE5BF8DE0ED
:10018400A2E0BB27ED938A95E9F780E094E0A0E62E
:10019400ED930197E9F7EAEFF0E0859195910097E7
:1001A40061F0A591B59105901590BF01F0010590FE
:1001B4000D920197E1F7FB01F0CFEFE5EDBFE4E02D
:1001C400EEBFC0E6D1E00C941B03AA93E199FECFE5
:1001D400E981FA81FFBBEEBBE881EDBBE29AE19ACB
:1001E4000C947D03BA93AA93E199FECFE881F98137
:1001F400FFBBEEBBE09AEDB30C944B030E94C1032A
:100204000E940C04DCF308950E94C603A0E6B1E04A
:100214000E94CD03AFE00E94400344245524089576
:100224001A9311E0193008F063C01BBBA1E0B0E0E1
:100234000E94F903EBB3E130A9F40E94C103E13059
:10024400A0E0FA0711F4E1E35FC1E230A0E0FA07AD
:1002540011F4E2E359C1E430A0E0FA0711F4E3E356
:1002640053C144C0EBB3E230A9F40E94C103E130AE
:10027400A0E0FA0711F4E4E347C1E230A0E0FA0792
:1002840011F4E5E341C1E430A0E0FA0711F4E6E338
:100294003BC12CC0EBB3E430A9F40E94C103E130AC
:1002A400A0E0FA0711F4E7E32FC1E230A0E0FA0777
:1002B40011F4E8E329C1E430A0E0FA0711F4E9E31A
:1002C40023C114C00E94C103E130A0E0FA0711F475
:1002D400EAE21AC1E230A0E0FA0711F4E0E314C143
:1002E400E430A0E0FA0711F4E3E20EC1110F9ACF53
:1002F4000BC11A9310E082DF0E94D20359F01A3224
:1003040019F0E0E0F0E000C1A12F0E945903E1E000
:10031400F0E0FAC0F1CFE52DF0E0F097DF0162DF05
:10032400E0534E2E0E94C603AEE6B1E00E94CD0318
:10033400A8E00E944003A42DA05D0E94D7030E9460
:10034400C603A6E7B1E00E94CD03A1E00E944003EA
:10035400A0E30E94D70308950E94C603C49AA5E8A7
:10036400B1E00E946E03ACE2B1E00E94F903C498CC
:1003740008951A9310E0B099FECFB09B10C01F5F90
:10038400E0E0EA93A1E00E944003A12FA05D0E9457
:100394005903B09B02C0411609F401C0FACF1415E9
:1003A40019F4DADF31DFB0C0E8CF2EDFE0E0EA9302
:1003B400AFE00E94400334DF5E2E552099F0E0E365
:1003C400E51518F4E9E3E51510F41EDFEFCFA52DCC
:1003D4000E9459038EDF309719F09DDFCADF01C0F8
:1003E40013DF0CDFE3CFBA93AA930E94C603A88558
:1003F400B9850E946E03A881B9810E94F9030E9405
:10040400C603AE81BF810E946E03EC81EA93AB8187
:1004140035D12A960895AA931A9310E0EFDE0E942C
:10042400C603A7E9B1E058D1EEE0EA93A0E026D1F3
:100434000E94D203D9F1133221F4A3E238D11881F6
:1004440028C1113310F01A3348F0E4EAF1E0FA93CA
:10045400EA93E3EBF1E00E94DD03EACFA12F27D179
:1004640048DF3097D1F0E981F0E0F097FA93EA930E
:10047400A12FABDEE0ECF1E0FA93EA93E1EDF1E0D9
:10048400FA93EA93E0E0F0E0FA93EA93FA93EA93BA
:10049400A4E1B0E0A8DF1881FCC0E2EEF1E0FA9339
:1004A400EA93E1EFF1E00E94DD03C2CFA7DEC0CF03
:1004B4001A9310E00E94C603AEEFB1E00DD10E9482
:1004C400D20301F1133219F4A3E2F1D01DC01033A9
:1004D40010F01A3330F00E94C603ACE0B2E0FCD056
:1004E400EECFEDE0EA93A0E0C9D0A12FE0D0AAE0DE
:1004F400B0E00E94F903A12F8EDF0E94C603AAE197
:10050400B2E0EAD07BDEDBCF199108950E94C603E6
:10051400A8E2B2E0E1D0A8ECB0E00E94F903C8DFA1
:10052400089524970E94100410E000E030E00E9437
:10053400C603A9E3B2E00E94CD03A1E09FD070DE20
:100544000E2F003081F0033221F4A3E2B0D0E0E0BA
:100554002AC0E32F3F5FF0E0DE011496EA0FFB1F91
:100564000083A02FA4D04ADE3330C1F4E0E0EF834F
:10057400E9E5F2E0FA93EA93DE0116960E94AD03F0
:10058400E03011F4E1E00FC030E00E94C603A9E4BA
:10059400B2E00E94CD03A1E071D01F5F133011F4CB
:1005A400E0E001C0CCCF0E941504289608950A9279
:1005B4001A92FA926A937A938A939A93AA93BA9321
:1005C400EA93FA93EFB7EA93772039F08299FECF52
:1005D400A8DFE03009F09ADFE8DEE991EFBFF99196
:1005E400E991B991A9919991899179916991F99038
:1005F4001990099018951A930A93EFE0EBBBEABBA4
:10060400E0E0E5BBEFEFE4BBE0EFE7BBE0E0E8BB35
:10061400E1BBE2BB7894EBB7E064EBBFE2E0E5BF9B
:10062400E0E0E4BFE0E4EABFA0E167D009911991FA
:100634000895E1DFE1E07E2EB8DEFFCFAA93E5B3B3
:10064400EF70AE2FE881E07FEA2BE5BB8DE08A9561
:10065400F1F7AA9A8DE08A95F1F7AA988DE08A9528
:10066400F1F777C0AA93A881E9DFE881E295E883EE
:10067400A881E4DF85E88A95F1F76BC0AA93E88145
:10068400F0E0E35AFD4FE081A981AE0FEBDF698012
:10069400988022960895A2E00E94EB03ACE0E2DF8A
:1006A400A1E00E94EB03E0E09E2E6E2E0895AA9333
:1006B400A881AA3011F0681448F0E0E0EA9393941A
:1006C400A92DDCDFA881AA3009F443C06394A89A59
:1006D400A881C8DFA8983DC0BA93AA931A93A981A8
:1006E400BA81ED91A983BA831E2FE03019F0A12FAE
:1006F400DEDFF5CF188123960895AA93E4B3E06F63
:10070400E4BBA29AA09AA19AAA98A898A9988880CA
:10071400E881E058E0935F02E881E054E0936002EE
:10072400A4E1B0E00E94F9030E94F1030E94F103E6
:100734000E94F103A0E282DF88EC90E00197F1F7D8
:10074400A8E290DFA4E08EDFA5E88CDFA6E08ADFD4
:10075400A2DF21960895BA93AA93E991F991A991F8
:10076400B9916D917191671721F46623D1F7EE2742
:100774000895671BE1F3E1E008F4E2500895E9B35A
:10078400F0E00E94030408950E944D03E0E0EA9320
:10079400A0E00C9440030E946E03E0E0EA93089505
:1007A4000E9412011E2F103008950E945903A4E6DE
:1007B400B0E00C94F903FA93EA93EEE0F0E0FA93D4
:1007C400EA93E0E0F0E0FA93EA93A2E3B0E00C9459
:1007D400F5010E943403A3E0B0E00C94F903A0E314
:1007E4000E94200388EC90E00197F1F70895109699
:1007F40039F080ED97E00197F1F7A8951197C9F7C3
:100804000895F595E795F595E795F595E795F595AB
:10081400E795089500240E160F0608953A932A9337
:100824001A930A9308953B812A81198108810895B6
:00000001FF
